{
  "contractName": "Voting",
  "abi": [
    {
      "inputs": [],
      "stateMutability": "nonpayable",
      "type": "constructor"
    },
    {
      "inputs": [
        {
          "internalType": "uint256",
          "name": "",
          "type": "uint256"
        }
      ],
      "name": "aadhaarList",
      "outputs": [
        {
          "internalType": "uint256",
          "name": "",
          "type": "uint256"
        }
      ],
      "stateMutability": "view",
      "type": "function"
    },
    {
      "inputs": [],
      "name": "owner",
      "outputs": [
        {
          "internalType": "address",
          "name": "",
          "type": "address"
        }
      ],
      "stateMutability": "view",
      "type": "function"
    },
    {
      "inputs": [],
      "name": "publishResults",
      "outputs": [
        {
          "internalType": "bool",
          "name": "",
          "type": "bool"
        }
      ],
      "stateMutability": "view",
      "type": "function"
    },
    {
      "inputs": [
        {
          "internalType": "string",
          "name": "_name",
          "type": "string"
        },
        {
          "internalType": "string",
          "name": "_dept",
          "type": "string"
        }
      ],
      "name": "addCandidate",
      "outputs": [],
      "stateMutability": "nonpayable",
      "type": "function"
    },
    {
      "inputs": [],
      "name": "removeCandidate",
      "outputs": [],
      "stateMutability": "nonpayable",
      "type": "function"
    },
    {
      "inputs": [
        {
          "internalType": "uint256",
          "name": "_candidateID",
          "type": "uint256"
        },
        {
          "internalType": "uint256",
          "name": "_aadhaarID",
          "type": "uint256"
        }
      ],
      "name": "doVote",
      "outputs": [],
      "stateMutability": "nonpayable",
      "type": "function"
    },
    {
      "inputs": [
        {
          "internalType": "uint256",
          "name": "_aadhaarID",
          "type": "uint256"
        }
      ],
      "name": "checkIfVoted",
      "outputs": [
        {
          "internalType": "bool",
          "name": "",
          "type": "bool"
        }
      ],
      "stateMutability": "view",
      "type": "function"
    },
    {
      "inputs": [
        {
          "internalType": "uint256",
          "name": "_candidateID",
          "type": "uint256"
        }
      ],
      "name": "getCandidate",
      "outputs": [
        {
          "internalType": "uint256",
          "name": "",
          "type": "uint256"
        },
        {
          "internalType": "string",
          "name": "",
          "type": "string"
        },
        {
          "internalType": "string",
          "name": "",
          "type": "string"
        }
      ],
      "stateMutability": "view",
      "type": "function"
    },
    {
      "inputs": [],
      "name": "getNumOfCandidates",
      "outputs": [
        {
          "internalType": "uint256",
          "name": "",
          "type": "uint256"
        }
      ],
      "stateMutability": "view",
      "type": "function"
    },
    {
      "inputs": [],
      "name": "getNumOfVoters",
      "outputs": [
        {
          "internalType": "uint256",
          "name": "",
          "type": "uint256"
        }
      ],
      "stateMutability": "view",
      "type": "function"
    },
    {
      "inputs": [
        {
          "internalType": "uint256",
          "name": "_candidateID",
          "type": "uint256"
        }
      ],
      "name": "results",
      "outputs": [
        {
          "internalType": "uint256",
          "name": "",
          "type": "uint256"
        }
      ],
      "stateMutability": "view",
      "type": "function"
    },
    {
      "inputs": [
        {
          "internalType": "bool",
          "name": "status",
          "type": "bool"
        }
      ],
      "name": "publish",
      "outputs": [
        {
          "internalType": "bool",
          "name": "",
          "type": "bool"
        }
      ],
      "stateMutability": "nonpayable",
      "type": "function"
    }
  ],
  "bytecode": "0x60806040526000600460006101000a81548160ff02191690831515021790555034801561002b57600080fd5b50336000806101000a81548173ffffffffffffffffffffffffffffffffffffffff021916908373ffffffffffffffffffffffffffffffffffffffff160217905550610f628061007b6000396000f3fe608060405234801561001057600080fd5b50600436106100b45760003560e01c80636ece7d88116100715780636ece7d881461018f5780638da5cb5b146101ab578063b952e7d8146101c9578063e299d463146101e7578063e8685ba114610217578063fd31c45814610235576100b4565b80631b0c27da146100b95780631d1673bc146100e957806326541b56146100f357806335b8e8201461010f5780635949c4301461014157806365fc783c14610171575b600080fd5b6100d360048036038101906100ce9190610a17565b610265565b6040516100e09190610a53565b60405180910390f35b6100f16102e1565b005b61010d60048036038101906101089190610bb4565b61043f565b005b61012960048036038101906101249190610a17565b610545565b60405161013893929190610cb4565b60405180910390f35b61015b60048036038101906101569190610a17565b6106fb565b6040516101689190610d14565b60405180910390f35b610179610728565b6040516101869190610a53565b60405180910390f35b6101a960048036038101906101a49190610d2f565b610732565b005b6101b3610831565b6040516101c09190610db0565b60405180910390f35b6101d1610855565b6040516101de9190610d14565b60405180910390f35b61020160048036038101906101fc9190610a17565b610868565b60405161020e9190610a53565b60405180910390f35b61021f61088c565b60405161022c9190610a53565b60405180910390f35b61024f600480360381019061024a9190610df7565b610896565b60405161025c9190610d14565b60405180910390f35b6000806000905060005b6002548110156102d75783600660006003848154811061029257610291610e24565b5b906000526020600020015481526020019081526020016000206000015414156102c45781806102c090610e82565b9250505b80806102cf90610e82565b91505061026f565b5080915050919050565b60008054906101000a900473ffffffffffffffffffffffffffffffffffffffff1673ffffffffffffffffffffffffffffffffffffffff163373ffffffffffffffffffffffffffffffffffffffff161461033957600080fd5b60005b60015481116103a257600560008281526020019081526020016000206000808201600061036991906108c9565b60018201600061037991906108c9565b6002820160006101000a81549060ff02191690555050808061039a90610e82565b91505061033c565b5060005b6002548110156104135760066000600383815481106103c8576103c7610e24565b5b906000526020600020015481526020019081526020016000206000808201600090556001820160006101000a81549060ff02191690555050808061040b90610e82565b9150506103a6565b5060006002819055506000600181905550600360006104329190610909565b61043c6000610896565b50565b60008054906101000a900473ffffffffffffffffffffffffffffffffffffffff1673ffffffffffffffffffffffffffffffffffffffff163373ffffffffffffffffffffffffffffffffffffffff161461049757600080fd5b6000600160008154809291906104ac90610e82565b9190505590506040518060600160405280848152602001838152602001600115158152506005600083815260200190815260200160002060008201518160000190805190602001906104ff92919061092a565b50602082015181600101908051906020019061051c92919061092a565b5060408201518160020160006101000a81548160ff021916908315150217905550905050505050565b6000606080600115156005600086815260200190815260200160002060020160009054906101000a900460ff16151514156106ca578360056000868152602001908152602001600020600001600560008781526020019081526020016000206001018180546105b390610efa565b80601f01602080910402602001604051908101604052809291908181526020018280546105df90610efa565b801561062c5780601f106106015761010080835404028352916020019161062c565b820191906000526020600020905b81548152906001019060200180831161060f57829003601f168201915b5050505050915080805461063f90610efa565b80601f016020809104026020016040519081016040528092919081815260200182805461066b90610efa565b80156106b85780601f1061068d576101008083540402835291602001916106b8565b820191906000526020600020905b81548152906001019060200180831161069b57829003601f168201915b505050505090509250925092506106f4565b61019460405180602001604052806000815250604051806020016040528060008152509250925092505b9193909250565b60006006600083815260200190815260200160002060010160009054906101000a900460ff169050919050565b6000600254905090565b600115156005600084815260200190815260200160002060020160009054906101000a900460ff161515141561082d57600015156006600083815260200190815260200160002060010160009054906101000a900460ff161515141561082c57600260008154809291906107a590610e82565b91905055506003819080600181540180825580915050600190039060005260206000200160009091909190915055604051806040016040528083815260200160011515815250600660008381526020019081526020016000206000820151816000015560208201518160010160006101000a81548160ff0219169083151502179055509050505b5b5050565b60008054906101000a900473ffffffffffffffffffffffffffffffffffffffff1681565b600460009054906101000a900460ff1681565b6003818154811061087857600080fd5b906000526020600020016000915090505481565b6000600154905090565b600081600460006101000a81548160ff021916908315150217905550600460009054906101000a900460ff169050919050565b5080546108d590610efa565b6000825580601f106108e75750610906565b601f01602090049060005260206000209081019061090591906109b0565b5b50565b508054600082559060005260206000209081019061092791906109b0565b50565b82805461093690610efa565b90600052602060002090601f016020900481019282610958576000855561099f565b82601f1061097157805160ff191683800117855561099f565b8280016001018555821561099f579182015b8281111561099e578251825591602001919060010190610983565b5b5090506109ac91906109b0565b5090565b5b808211156109c95760008160009055506001016109b1565b5090565b6000604051905090565b600080fd5b600080fd5b6000819050919050565b6109f4816109e1565b81146109ff57600080fd5b50565b600081359050610a11816109eb565b92915050565b600060208284031215610a2d57610a2c6109d7565b5b6000610a3b84828501610a02565b91505092915050565b610a4d816109e1565b82525050565b6000602082019050610a686000830184610a44565b92915050565b600080fd5b600080fd5b6000601f19601f8301169050919050565b7f4e487b7100000000000000000000000000000000000000000000000000000000600052604160045260246000fd5b610ac182610a78565b810181811067ffffffffffffffff82111715610ae057610adf610a89565b5b80604052505050565b6000610af36109cd565b9050610aff8282610ab8565b919050565b600067ffffffffffffffff821115610b1f57610b1e610a89565b5b610b2882610a78565b9050602081019050919050565b82818337600083830152505050565b6000610b57610b5284610b04565b610ae9565b905082815260208101848484011115610b7357610b72610a73565b5b610b7e848285610b35565b509392505050565b600082601f830112610b9b57610b9a610a6e565b5b8135610bab848260208601610b44565b91505092915050565b60008060408385031215610bcb57610bca6109d7565b5b600083013567ffffffffffffffff811115610be957610be86109dc565b5b610bf585828601610b86565b925050602083013567ffffffffffffffff811115610c1657610c156109dc565b5b610c2285828601610b86565b9150509250929050565b600081519050919050565b600082825260208201905092915050565b60005b83811015610c66578082015181840152602081019050610c4b565b83811115610c75576000848401525b50505050565b6000610c8682610c2c565b610c908185610c37565b9350610ca0818560208601610c48565b610ca981610a78565b840191505092915050565b6000606082019050610cc96000830186610a44565b8181036020830152610cdb8185610c7b565b90508181036040830152610cef8184610c7b565b9050949350505050565b60008115159050919050565b610d0e81610cf9565b82525050565b6000602082019050610d296000830184610d05565b92915050565b60008060408385031215610d4657610d456109d7565b5b6000610d5485828601610a02565b9250506020610d6585828601610a02565b9150509250929050565b600073ffffffffffffffffffffffffffffffffffffffff82169050919050565b6000610d9a82610d6f565b9050919050565b610daa81610d8f565b82525050565b6000602082019050610dc56000830184610da1565b92915050565b610dd481610cf9565b8114610ddf57600080fd5b50565b600081359050610df181610dcb565b92915050565b600060208284031215610e0d57610e0c6109d7565b5b6000610e1b84828501610de2565b91505092915050565b7f4e487b7100000000000000000000000000000000000000000000000000000000600052603260045260246000fd5b7f4e487b7100000000000000000000000000000000000000000000000000000000600052601160045260246000fd5b6000610e8d826109e1565b91507fffffffffffffffffffffffffffffffffffffffffffffffffffffffffffffffff821415610ec057610ebf610e53565b5b600182019050919050565b7f4e487b7100000000000000000000000000000000000000000000000000000000600052602260045260246000fd5b60006002820490506001821680610f1257607f821691505b60208210811415610f2657610f25610ecb565b5b5091905056fea2646970667358221220d4bae6fa5a17710825e1cae73a78a85899b7962bc2d2e84508885b87ace6720664736f6c63430008090033",
  "immutableReferences": {},
  "source": "// SPDX-License-Identifier: GPL-3.0\r\n\r\npragma solidity ^0.8.0;\r\n\r\ncontract Voting {\r\n    address public owner;\r\n\r\n    constructor() {\r\n        owner = msg.sender;\r\n    }\r\n\r\n    modifier onlyOwner() {\r\n        require(msg.sender == owner);\r\n        _;\r\n    }\r\n\r\n    struct Voter {\r\n        uint candidateIDVote;\r\n        bool voted;\r\n    }\r\n\r\n    struct Candidate {\r\n        string name;\r\n        string dept;\r\n        bool doesExist;\r\n    }\r\n\r\n    uint numCandidates;\r\n    uint numVoters;\r\n    uint[] public aadhaarList;\r\n    bool public publishResults = false;\r\n\r\n    mapping(uint => Candidate) candidates;\r\n    mapping(uint => Voter) voters;\r\n\r\n    // Add Candidates\r\n    function addCandidate(\r\n        string memory _name,\r\n        string memory _dept\r\n    ) public onlyOwner {\r\n        uint candidateID = numCandidates++;\r\n        candidates[candidateID] = Candidate(_name, _dept, true);\r\n    }\r\n\r\n    // Remove Candidate\r\n    function removeCandidate() public onlyOwner {\r\n        for (uint i = 0; i <= numCandidates; i++) {\r\n            delete candidates[i];\r\n        }\r\n        for (uint i = 0; i < numVoters; i++) {\r\n            delete voters[aadhaarList[i]];\r\n        }\r\n        numVoters = 0;\r\n        numCandidates = 0;\r\n        delete aadhaarList;\r\n        publish(false);\r\n    }\r\n\r\n    // Voter for Candidates\r\n    function doVote(uint _candidateID, uint _aadhaarID) public {\r\n        if (candidates[_candidateID].doesExist == true) {\r\n            if (voters[_aadhaarID].voted == false) {\r\n                numVoters++;\r\n                aadhaarList.push(_aadhaarID);\r\n                voters[_aadhaarID] = Voter(_candidateID, true);\r\n            }\r\n        }\r\n    }\r\n\r\n    // Check if voter has voted or not\r\n    function checkIfVoted(uint _aadhaarID) public view returns (bool) {\r\n        return voters[_aadhaarID].voted;\r\n    }\r\n\r\n    // Get Candidates\r\n    function getCandidate(\r\n        uint _candidateID\r\n    ) public view returns (uint, string memory, string memory) {\r\n        if (candidates[_candidateID].doesExist == true) {\r\n            return (\r\n                _candidateID,\r\n                candidates[_candidateID].name,\r\n                candidates[_candidateID].dept\r\n            );\r\n        } else {\r\n            return (404, \"\", \"\");\r\n        }\r\n    }\r\n\r\n    // Get Number Of Candidates\r\n    function getNumOfCandidates() public view returns (uint) {\r\n        return numCandidates;\r\n    }\r\n\r\n    // Get Number of Voters\r\n    function getNumOfVoters() public view returns (uint) {\r\n        return numVoters;\r\n    }\r\n\r\n    // Results\r\n    function results(uint _candidateID) public view returns (uint) {\r\n        uint numOfVotes = 0;\r\n        for (uint i = 0; i < numVoters; i++) {\r\n            if (voters[aadhaarList[i]].candidateIDVote == _candidateID) {\r\n                numOfVotes++;\r\n            }\r\n        }\r\n        return numOfVotes;\r\n    }\r\n\r\n    // Store Result Published State\r\n    function publish(bool status) public returns (bool) {\r\n        publishResults = status;\r\n        return publishResults;\r\n    }\r\n}\r\n",
  "sourcePath": "D:\\FINAL YEAR PROJECT\\E-Voting-using-Blockchain\\contracts\\Voting.sol",
  "compiler": {
    "name": "solc",
    "version": "0.8.9+commit.e5eed63a.Emscripten.clang"
  },
  "schemaVersion": "3.4.13",
  "updatedAt": "2023-05-11T14:52:34.473Z",
  "devdoc": {
    "kind": "dev",
    "methods": {},
    "version": 1
  },
  "userdoc": {
    "kind": "user",
    "methods": {},
    "version": 1
  }
}