{
  "contractName": "Voting",
  "abi": [
    {
      "inputs": [],
      "stateMutability": "nonpayable",
      "type": "constructor"
    },
    {
      "inputs": [],
      "name": "owner",
      "outputs": [
        {
          "internalType": "address",
          "name": "",
          "type": "address"
        }
      ],
      "stateMutability": "view",
      "type": "function",
      "constant": true
    },
    {
      "inputs": [
        {
          "internalType": "string",
          "name": "_name",
          "type": "string"
        },
        {
          "internalType": "string",
          "name": "_dept",
          "type": "string"
        }
      ],
      "name": "addCandidate",
      "outputs": [],
      "stateMutability": "nonpayable",
      "type": "function"
    },
    {
      "inputs": [
        {
          "internalType": "uint256",
          "name": "_candidateID",
          "type": "uint256"
        },
        {
          "internalType": "uint256",
          "name": "_aadhaarID",
          "type": "uint256"
        }
      ],
      "name": "doVote",
      "outputs": [],
      "stateMutability": "nonpayable",
      "type": "function"
    },
    {
      "inputs": [
        {
          "internalType": "uint256",
          "name": "_candidateID",
          "type": "uint256"
        }
      ],
      "name": "getCandidate",
      "outputs": [
        {
          "internalType": "uint256",
          "name": "",
          "type": "uint256"
        },
        {
          "internalType": "string",
          "name": "",
          "type": "string"
        },
        {
          "internalType": "string",
          "name": "",
          "type": "string"
        }
      ],
      "stateMutability": "view",
      "type": "function",
      "constant": true
    },
    {
      "inputs": [],
      "name": "getNumOfCandidates",
      "outputs": [
        {
          "internalType": "uint256",
          "name": "",
          "type": "uint256"
        }
      ],
      "stateMutability": "view",
      "type": "function",
      "constant": true
    },
    {
      "inputs": [],
      "name": "getNumOfVoters",
      "outputs": [
        {
          "internalType": "uint256",
          "name": "",
          "type": "uint256"
        }
      ],
      "stateMutability": "view",
      "type": "function",
      "constant": true
    },
    {
      "inputs": [
        {
          "internalType": "uint256",
          "name": "_candidateID",
          "type": "uint256"
        },
        {
          "internalType": "uint256",
          "name": "_aadhaarID",
          "type": "uint256"
        }
      ],
      "name": "results",
      "outputs": [
        {
          "internalType": "uint256",
          "name": "",
          "type": "uint256"
        }
      ],
      "stateMutability": "view",
      "type": "function",
      "constant": true
    }
  ],
  "bytecode": "0x608060405234801561001057600080fd5b50336000806101000a81548173ffffffffffffffffffffffffffffffffffffffff021916908373ffffffffffffffffffffffffffffffffffffffff160217905550610aba806100606000396000f3fe608060405234801561001057600080fd5b506004361061007d5760003560e01c80636ece7d881161005b5780636ece7d88146100ee5780638da5cb5b1461010a578063d70c6f4e14610128578063e8685ba1146101585761007d565b806326541b561461008257806335b8e8201461009e57806365fc783c146100d0575b600080fd5b61009c6004803603810190610097919061073d565b610176565b005b6100b860048036038101906100b391906107eb565b61027c565b6040516100c7939291906108af565b60405180910390f35b6100d86103d3565b6040516100e591906108f4565b60405180910390f35b6101086004803603810190610103919061090f565b6103dd565b005b6101126104b3565b60405161011f9190610990565b60405180910390f35b610142600480360381019061013d919061090f565b6104d7565b60405161014f91906108f4565b60405180910390f35b610160610536565b60405161016d91906108f4565b60405180910390f35b60008054906101000a900473ffffffffffffffffffffffffffffffffffffffff1673ffffffffffffffffffffffffffffffffffffffff163373ffffffffffffffffffffffffffffffffffffffff16146101ce57600080fd5b6000600160008154809291906101e3906109da565b919050559050604051806060016040528084815260200183815260200160011515815250600360008381526020019081526020016000206000820151816000019080519060200190610236929190610540565b506020820151816001019080519060200190610253929190610540565b5060408201518160020160006101000a81548160ff021916908315150217905550905050505050565b60006060808360036000868152602001908152602001600020600001600360008781526020019081526020016000206001018180546102ba90610a52565b80601f01602080910402602001604051908101604052809291908181526020018280546102e690610a52565b80156103335780601f1061030857610100808354040283529160200191610333565b820191906000526020600020905b81548152906001019060200180831161031657829003601f168201915b5050505050915080805461034690610a52565b80601f016020809104026020016040519081016040528092919081815260200182805461037290610a52565b80156103bf5780601f10610394576101008083540402835291602001916103bf565b820191906000526020600020905b8154815290600101906020018083116103a257829003601f168201915b505050505090509250925092509193909250565b6000600254905090565b600115156003600084815260200190815260200160002060020160009054906101000a900460ff16151514156104af57600015156004600083815260200190815260200160002060010160009054906101000a900460ff16151514156104ae5760026000815480929190610450906109da565b9190505550604051806040016040528083815260200160011515815250600460008381526020019081526020016000206000820151816000015560208201518160010160006101000a81548160ff0219169083151502179055509050505b5b5050565b60008054906101000a900473ffffffffffffffffffffffffffffffffffffffff1681565b6000806000905060005b60025481101561052b578460046000868152602001908152602001600020600001541415610518578180610514906109da565b9250505b8080610523906109da565b9150506104e1565b508091505092915050565b6000600154905090565b82805461054c90610a52565b90600052602060002090601f01602090048101928261056e57600085556105b5565b82601f1061058757805160ff19168380011785556105b5565b828001600101855582156105b5579182015b828111156105b4578251825591602001919060010190610599565b5b5090506105c291906105c6565b5090565b5b808211156105df5760008160009055506001016105c7565b5090565b6000604051905090565b600080fd5b600080fd5b600080fd5b600080fd5b6000601f19601f8301169050919050565b7f4e487b7100000000000000000000000000000000000000000000000000000000600052604160045260246000fd5b61064a82610601565b810181811067ffffffffffffffff8211171561066957610668610612565b5b80604052505050565b600061067c6105e3565b90506106888282610641565b919050565b600067ffffffffffffffff8211156106a8576106a7610612565b5b6106b182610601565b9050602081019050919050565b82818337600083830152505050565b60006106e06106db8461068d565b610672565b9050828152602081018484840111156106fc576106fb6105fc565b5b6107078482856106be565b509392505050565b600082601f830112610724576107236105f7565b5b81356107348482602086016106cd565b91505092915050565b60008060408385031215610754576107536105ed565b5b600083013567ffffffffffffffff811115610772576107716105f2565b5b61077e8582860161070f565b925050602083013567ffffffffffffffff81111561079f5761079e6105f2565b5b6107ab8582860161070f565b9150509250929050565b6000819050919050565b6107c8816107b5565b81146107d357600080fd5b50565b6000813590506107e5816107bf565b92915050565b600060208284031215610801576108006105ed565b5b600061080f848285016107d6565b91505092915050565b610821816107b5565b82525050565b600081519050919050565b600082825260208201905092915050565b60005b83811015610861578082015181840152602081019050610846565b83811115610870576000848401525b50505050565b600061088182610827565b61088b8185610832565b935061089b818560208601610843565b6108a481610601565b840191505092915050565b60006060820190506108c46000830186610818565b81810360208301526108d68185610876565b905081810360408301526108ea8184610876565b9050949350505050565b60006020820190506109096000830184610818565b92915050565b60008060408385031215610926576109256105ed565b5b6000610934858286016107d6565b9250506020610945858286016107d6565b9150509250929050565b600073ffffffffffffffffffffffffffffffffffffffff82169050919050565b600061097a8261094f565b9050919050565b61098a8161096f565b82525050565b60006020820190506109a56000830184610981565b92915050565b7f4e487b7100000000000000000000000000000000000000000000000000000000600052601160045260246000fd5b60006109e5826107b5565b91507fffffffffffffffffffffffffffffffffffffffffffffffffffffffffffffffff821415610a1857610a176109ab565b5b600182019050919050565b7f4e487b7100000000000000000000000000000000000000000000000000000000600052602260045260246000fd5b60006002820490506001821680610a6a57607f821691505b60208210811415610a7e57610a7d610a23565b5b5091905056fea26469706673582212207fd6c608f09d198ee6525e8e5fbbd1d422a8d699bacbc4c14f6a033338ec03a964736f6c63430008090033",
  "immutableReferences": {},
  "source": "// SPDX-License-Identifier: GPL-3.0\r\n\r\npragma solidity ^0.8.0;\r\n\r\ncontract Voting {\r\n\r\n    address public owner;\r\n\r\n    constructor() {\r\n        owner = msg.sender;\r\n    }\r\n\r\n    modifier onlyOwner {\r\n        require(msg.sender == owner);\r\n        _;\r\n    }\r\n\r\n    struct Voter {\r\n        uint candidateIDVote;\r\n        bool voted;\r\n    }\r\n\r\n    struct Candidate {\r\n        string name;\r\n        string dept;\r\n        bool doesExist; \r\n    }\r\n\r\n    \r\n    uint numCandidates;\r\n    uint numVoters;\r\n\r\n    mapping (uint => Candidate) candidates;\r\n    mapping (uint => Voter) voters;\r\n\r\n    // Add Candidates\r\n    function addCandidate(string memory _name, string memory _dept) onlyOwner public {\r\n        uint candidateID = numCandidates++;\r\n        candidates[candidateID] = Candidate(_name, _dept, true);\r\n    }\r\n\r\n    // Voter for Candidates\r\n    function doVote(uint _candidateID, uint _aadhaarID) public {\r\n        if (candidates[_candidateID].doesExist == true) {\r\n            if (voters[_aadhaarID].voted == false) {\r\n                numVoters++; \r\n                voters[_aadhaarID] = Voter(_candidateID, true);\r\n            }\r\n        }\r\n    }\r\n\r\n\r\n    // Get Candidates\r\n    function getCandidate(uint _candidateID) public view returns (uint, string memory, string memory) {\r\n        return (_candidateID,candidates[_candidateID].name, candidates[_candidateID].dept);\r\n    }\r\n\r\n    // Get Number Of Candidates\r\n    function getNumOfCandidates() public view returns(uint) {\r\n        return numCandidates;\r\n    }\r\n\r\n    // Get Number of Voters\r\n    function getNumOfVoters() public view returns(uint) {\r\n        return numVoters;\r\n    }\r\n\r\n    // Results\r\n    function results(uint _candidateID, uint _aadhaarID) view public returns (uint) {\r\n        uint numOfVotes = 0; \r\n        for (uint i = 0; i < numVoters; i++) {\r\n            if (voters[_aadhaarID].candidateIDVote == _candidateID) {\r\n                numOfVotes++;\r\n            }\r\n        }\r\n        return numOfVotes; \r\n    }\r\n\r\n}",
  "sourcePath": "D:\\FINAL YEAR PROJECT\\E-Voting-using-Blockchain\\contracts\\Voting.sol",
  "compiler": {
    "name": "solc",
    "version": "0.8.9+commit.e5eed63a.Emscripten.clang"
  },
  "schemaVersion": "3.4.13",
  "updatedAt": "2023-04-22T06:19:03.284Z",
  "networkType": "ethereum",
  "devdoc": {
    "kind": "dev",
    "methods": {},
    "version": 1
  },
  "userdoc": {
    "kind": "user",
    "methods": {},
    "version": 1
  }
}