{
  "contractName": "Voting",
  "abi": [
    {
      "inputs": [],
      "stateMutability": "nonpayable",
      "type": "constructor"
    },
    {
      "inputs": [
        {
          "internalType": "uint256",
          "name": "",
          "type": "uint256"
        }
      ],
      "name": "aadhaarList",
      "outputs": [
        {
          "internalType": "uint256",
          "name": "",
          "type": "uint256"
        }
      ],
      "stateMutability": "view",
      "type": "function",
      "constant": true
    },
    {
      "inputs": [],
      "name": "owner",
      "outputs": [
        {
          "internalType": "address",
          "name": "",
          "type": "address"
        }
      ],
      "stateMutability": "view",
      "type": "function",
      "constant": true
    },
    {
      "inputs": [
        {
          "internalType": "string",
          "name": "_name",
          "type": "string"
        },
        {
          "internalType": "string",
          "name": "_dept",
          "type": "string"
        }
      ],
      "name": "addCandidate",
      "outputs": [],
      "stateMutability": "nonpayable",
      "type": "function"
    },
    {
      "inputs": [],
      "name": "removeCandidate",
      "outputs": [],
      "stateMutability": "nonpayable",
      "type": "function"
    },
    {
      "inputs": [
        {
          "internalType": "uint256",
          "name": "_candidateID",
          "type": "uint256"
        },
        {
          "internalType": "uint256",
          "name": "_aadhaarID",
          "type": "uint256"
        }
      ],
      "name": "doVote",
      "outputs": [],
      "stateMutability": "nonpayable",
      "type": "function"
    },
    {
      "inputs": [
        {
          "internalType": "uint256",
          "name": "_aadhaarID",
          "type": "uint256"
        }
      ],
      "name": "checkIfVoted",
      "outputs": [
        {
          "internalType": "bool",
          "name": "",
          "type": "bool"
        }
      ],
      "stateMutability": "view",
      "type": "function",
      "constant": true
    },
    {
      "inputs": [
        {
          "internalType": "uint256",
          "name": "_candidateID",
          "type": "uint256"
        }
      ],
      "name": "getCandidate",
      "outputs": [
        {
          "internalType": "uint256",
          "name": "",
          "type": "uint256"
        },
        {
          "internalType": "string",
          "name": "",
          "type": "string"
        },
        {
          "internalType": "string",
          "name": "",
          "type": "string"
        }
      ],
      "stateMutability": "view",
      "type": "function",
      "constant": true
    },
    {
      "inputs": [],
      "name": "getNumOfCandidates",
      "outputs": [
        {
          "internalType": "uint256",
          "name": "",
          "type": "uint256"
        }
      ],
      "stateMutability": "view",
      "type": "function",
      "constant": true
    },
    {
      "inputs": [],
      "name": "getNumOfVoters",
      "outputs": [
        {
          "internalType": "uint256",
          "name": "",
          "type": "uint256"
        }
      ],
      "stateMutability": "view",
      "type": "function",
      "constant": true
    },
    {
      "inputs": [
        {
          "internalType": "uint256",
          "name": "_candidateID",
          "type": "uint256"
        }
      ],
      "name": "results",
      "outputs": [
        {
          "internalType": "uint256",
          "name": "",
          "type": "uint256"
        }
      ],
      "stateMutability": "view",
      "type": "function",
      "constant": true
    }
  ],
  "bytecode": "0x608060405234801561001057600080fd5b50336000806101000a81548173ffffffffffffffffffffffffffffffffffffffff021916908373ffffffffffffffffffffffffffffffffffffffff160217905550610e54806100606000396000f3fe608060405234801561001057600080fd5b506004361061009e5760003560e01c806365fc783c1161006657806365fc783c1461015b5780636ece7d88146101795780638da5cb5b14610195578063e299d463146101b3578063e8685ba1146101e35761009e565b80631b0c27da146100a35780631d1673bc146100d357806326541b56146100dd57806335b8e820146100f95780635949c4301461012b575b600080fd5b6100bd60048036038101906100b89190610962565b610201565b6040516100ca919061099e565b60405180910390f35b6100db61027d565b005b6100f760048036038101906100f29190610aff565b6103d0565b005b610113600480360381019061010e9190610962565b6104d6565b60405161012293929190610bff565b60405180910390f35b61014560048036038101906101409190610962565b61068c565b6040516101529190610c5f565b60405180910390f35b6101636106b9565b604051610170919061099e565b60405180910390f35b610193600480360381019061018e9190610c7a565b6106c3565b005b61019d6107c2565b6040516101aa9190610cfb565b60405180910390f35b6101cd60048036038101906101c89190610962565b6107e6565b6040516101da919061099e565b60405180910390f35b6101eb61080a565b6040516101f8919061099e565b60405180910390f35b6000806000905060005b6002548110156102735783600560006003848154811061022e5761022d610d16565b5b9060005260206000200154815260200190815260200160002060000154141561026057818061025c90610d74565b9250505b808061026b90610d74565b91505061020b565b5080915050919050565b60008054906101000a900473ffffffffffffffffffffffffffffffffffffffff1673ffffffffffffffffffffffffffffffffffffffff163373ffffffffffffffffffffffffffffffffffffffff16146102d557600080fd5b60005b600154811161033e5760046000828152602001908152602001600020600080820160006103059190610814565b6001820160006103159190610814565b6002820160006101000a81549060ff02191690555050808061033690610d74565b9150506102d8565b5060005b6002548110156103af57600560006003838154811061036457610363610d16565b5b906000526020600020015481526020019081526020016000206000808201600090556001820160006101000a81549060ff0219169055505080806103a790610d74565b915050610342565b5060006002819055506000600181905550600360006103ce9190610854565b565b60008054906101000a900473ffffffffffffffffffffffffffffffffffffffff1673ffffffffffffffffffffffffffffffffffffffff163373ffffffffffffffffffffffffffffffffffffffff161461042857600080fd5b60006001600081548092919061043d90610d74565b919050559050604051806060016040528084815260200183815260200160011515815250600460008381526020019081526020016000206000820151816000019080519060200190610490929190610875565b5060208201518160010190805190602001906104ad929190610875565b5060408201518160020160006101000a81548160ff021916908315150217905550905050505050565b6000606080600115156004600086815260200190815260200160002060020160009054906101000a900460ff161515141561065b5783600460008681526020019081526020016000206000016004600087815260200190815260200160002060010181805461054490610dec565b80601f016020809104026020016040519081016040528092919081815260200182805461057090610dec565b80156105bd5780601f10610592576101008083540402835291602001916105bd565b820191906000526020600020905b8154815290600101906020018083116105a057829003601f168201915b505050505091508080546105d090610dec565b80601f01602080910402602001604051908101604052809291908181526020018280546105fc90610dec565b80156106495780601f1061061e57610100808354040283529160200191610649565b820191906000526020600020905b81548152906001019060200180831161062c57829003601f168201915b50505050509050925092509250610685565b61019460405180602001604052806000815250604051806020016040528060008152509250925092505b9193909250565b60006005600083815260200190815260200160002060010160009054906101000a900460ff169050919050565b6000600254905090565b600115156004600084815260200190815260200160002060020160009054906101000a900460ff16151514156107be57600015156005600083815260200190815260200160002060010160009054906101000a900460ff16151514156107bd576002600081548092919061073690610d74565b91905055506003819080600181540180825580915050600190039060005260206000200160009091909190915055604051806040016040528083815260200160011515815250600560008381526020019081526020016000206000820151816000015560208201518160010160006101000a81548160ff0219169083151502179055509050505b5b5050565b60008054906101000a900473ffffffffffffffffffffffffffffffffffffffff1681565b600381815481106107f657600080fd5b906000526020600020016000915090505481565b6000600154905090565b50805461082090610dec565b6000825580601f106108325750610851565b601f01602090049060005260206000209081019061085091906108fb565b5b50565b508054600082559060005260206000209081019061087291906108fb565b50565b82805461088190610dec565b90600052602060002090601f0160209004810192826108a357600085556108ea565b82601f106108bc57805160ff19168380011785556108ea565b828001600101855582156108ea579182015b828111156108e95782518255916020019190600101906108ce565b5b5090506108f791906108fb565b5090565b5b808211156109145760008160009055506001016108fc565b5090565b6000604051905090565b600080fd5b600080fd5b6000819050919050565b61093f8161092c565b811461094a57600080fd5b50565b60008135905061095c81610936565b92915050565b60006020828403121561097857610977610922565b5b60006109868482850161094d565b91505092915050565b6109988161092c565b82525050565b60006020820190506109b3600083018461098f565b92915050565b600080fd5b600080fd5b6000601f19601f8301169050919050565b7f4e487b7100000000000000000000000000000000000000000000000000000000600052604160045260246000fd5b610a0c826109c3565b810181811067ffffffffffffffff82111715610a2b57610a2a6109d4565b5b80604052505050565b6000610a3e610918565b9050610a4a8282610a03565b919050565b600067ffffffffffffffff821115610a6a57610a696109d4565b5b610a73826109c3565b9050602081019050919050565b82818337600083830152505050565b6000610aa2610a9d84610a4f565b610a34565b905082815260208101848484011115610abe57610abd6109be565b5b610ac9848285610a80565b509392505050565b600082601f830112610ae657610ae56109b9565b5b8135610af6848260208601610a8f565b91505092915050565b60008060408385031215610b1657610b15610922565b5b600083013567ffffffffffffffff811115610b3457610b33610927565b5b610b4085828601610ad1565b925050602083013567ffffffffffffffff811115610b6157610b60610927565b5b610b6d85828601610ad1565b9150509250929050565b600081519050919050565b600082825260208201905092915050565b60005b83811015610bb1578082015181840152602081019050610b96565b83811115610bc0576000848401525b50505050565b6000610bd182610b77565b610bdb8185610b82565b9350610beb818560208601610b93565b610bf4816109c3565b840191505092915050565b6000606082019050610c14600083018661098f565b8181036020830152610c268185610bc6565b90508181036040830152610c3a8184610bc6565b9050949350505050565b60008115159050919050565b610c5981610c44565b82525050565b6000602082019050610c746000830184610c50565b92915050565b60008060408385031215610c9157610c90610922565b5b6000610c9f8582860161094d565b9250506020610cb08582860161094d565b9150509250929050565b600073ffffffffffffffffffffffffffffffffffffffff82169050919050565b6000610ce582610cba565b9050919050565b610cf581610cda565b82525050565b6000602082019050610d106000830184610cec565b92915050565b7f4e487b7100000000000000000000000000000000000000000000000000000000600052603260045260246000fd5b7f4e487b7100000000000000000000000000000000000000000000000000000000600052601160045260246000fd5b6000610d7f8261092c565b91507fffffffffffffffffffffffffffffffffffffffffffffffffffffffffffffffff821415610db257610db1610d45565b5b600182019050919050565b7f4e487b7100000000000000000000000000000000000000000000000000000000600052602260045260246000fd5b60006002820490506001821680610e0457607f821691505b60208210811415610e1857610e17610dbd565b5b5091905056fea2646970667358221220be8c06504be76551c3041a981e5a93e5d6411a59c7a8497ee0f26c878fdd256c64736f6c63430008090033",
  "immutableReferences": {},
  "source": "// SPDX-License-Identifier: GPL-3.0\r\n\r\npragma solidity ^0.8.0;\r\n\r\ncontract Voting {\r\n    address public owner;\r\n\r\n    constructor() {\r\n        owner = msg.sender;\r\n    }\r\n\r\n    modifier onlyOwner() {\r\n        require(msg.sender == owner);\r\n        _;\r\n    }\r\n\r\n    struct Voter {\r\n        uint candidateIDVote;\r\n        bool voted;\r\n    }\r\n\r\n    struct Candidate {\r\n        string name;\r\n        string dept;\r\n        bool doesExist;\r\n    }\r\n\r\n\r\n\r\n    uint numCandidates;\r\n    uint numVoters;\r\n    uint[] public aadhaarList;\r\n\r\n    mapping(uint => Candidate) candidates;\r\n    mapping(uint => Voter) voters;\r\n\r\n    // Add Candidates\r\n    function addCandidate(\r\n        string memory _name,\r\n        string memory _dept\r\n    ) public onlyOwner {\r\n        uint candidateID = numCandidates++;\r\n        candidates[candidateID] = Candidate(_name, _dept, true);\r\n    }\r\n\r\n    // Remove Candidate\r\n    function removeCandidate() public onlyOwner {\r\n        for (uint i = 0; i <= numCandidates; i++) {\r\n            delete candidates[i];\r\n        }\r\n        for (uint i = 0; i < numVoters; i++) {\r\n            delete voters[aadhaarList[i]];\r\n        }\r\n        numVoters = 0;\r\n        numCandidates = 0;\r\n        delete aadhaarList;\r\n    }\r\n\r\n    // Voter for Candidates\r\n    function doVote(uint _candidateID, uint _aadhaarID) public {\r\n        if (candidates[_candidateID].doesExist == true) {\r\n            if (voters[_aadhaarID].voted == false) {\r\n                numVoters++;\r\n                aadhaarList.push(_aadhaarID);\r\n                voters[_aadhaarID] = Voter(_candidateID, true);\r\n            }\r\n        }\r\n    }\r\n\r\n    // Check if voter has voted or not\r\n    function checkIfVoted(uint _aadhaarID) public view  returns (bool)  {\r\n        return voters[_aadhaarID].voted;\r\n    }\r\n\r\n    // Get Candidates\r\n    function getCandidate(\r\n        uint _candidateID\r\n    ) public view returns (uint, string memory, string memory) {\r\n        if (candidates[_candidateID].doesExist == true) {\r\n            return (\r\n                _candidateID,\r\n                candidates[_candidateID].name,\r\n                candidates[_candidateID].dept\r\n            );\r\n        } else {\r\n            return (404, \"\", \"\");\r\n        }\r\n    }\r\n\r\n    // Get Number Of Candidates\r\n    function getNumOfCandidates() public view returns (uint) {\r\n        return numCandidates;\r\n    }\r\n\r\n    // Get Number of Voters\r\n    function getNumOfVoters() public view returns (uint) {\r\n        return numVoters;\r\n    }\r\n\r\n    // Results\r\n    function results(uint _candidateID) public view returns (uint) {\r\n        uint numOfVotes = 0;\r\n        for (uint i = 0; i < numVoters; i++) {\r\n            if (voters[aadhaarList[i]].candidateIDVote == _candidateID) {\r\n                numOfVotes++;\r\n            }\r\n        }\r\n        return numOfVotes;\r\n    }\r\n}\r\n",
  "sourcePath": "D:\\FINAL YEAR PROJECT\\E-Voting-using-Blockchain\\contracts\\Voting.sol",
  "compiler": {
    "name": "solc",
    "version": "0.8.9+commit.e5eed63a.Emscripten.clang"
  },
  "schemaVersion": "3.4.13",
  "updatedAt": "2023-04-29T07:06:48.615Z",
  "networkType": "ethereum",
  "devdoc": {
    "kind": "dev",
    "methods": {},
    "version": 1
  },
  "userdoc": {
    "kind": "user",
    "methods": {},
    "version": 1
  }
}