{
  "contractName": "Voting",
  "abi": [
    {
      "inputs": [],
      "stateMutability": "nonpayable",
      "type": "constructor"
    },
    {
      "inputs": [
        {
          "internalType": "uint256",
          "name": "",
          "type": "uint256"
        }
      ],
      "name": "aadhaarList",
      "outputs": [
        {
          "internalType": "uint256",
          "name": "",
          "type": "uint256"
        }
      ],
      "stateMutability": "view",
      "type": "function",
      "constant": true
    },
    {
      "inputs": [],
      "name": "owner",
      "outputs": [
        {
          "internalType": "address",
          "name": "",
          "type": "address"
        }
      ],
      "stateMutability": "view",
      "type": "function",
      "constant": true
    },
    {
      "inputs": [
        {
          "internalType": "string",
          "name": "_name",
          "type": "string"
        },
        {
          "internalType": "string",
          "name": "_dept",
          "type": "string"
        }
      ],
      "name": "addCandidate",
      "outputs": [],
      "stateMutability": "nonpayable",
      "type": "function"
    },
    {
      "inputs": [],
      "name": "removeCandidate",
      "outputs": [],
      "stateMutability": "nonpayable",
      "type": "function"
    },
    {
      "inputs": [
        {
          "internalType": "uint256",
          "name": "_candidateID",
          "type": "uint256"
        },
        {
          "internalType": "uint256",
          "name": "_aadhaarID",
          "type": "uint256"
        }
      ],
      "name": "doVote",
      "outputs": [],
      "stateMutability": "nonpayable",
      "type": "function"
    },
    {
      "inputs": [
        {
          "internalType": "uint256",
          "name": "_candidateID",
          "type": "uint256"
        }
      ],
      "name": "getCandidate",
      "outputs": [
        {
          "internalType": "uint256",
          "name": "",
          "type": "uint256"
        },
        {
          "internalType": "string",
          "name": "",
          "type": "string"
        },
        {
          "internalType": "string",
          "name": "",
          "type": "string"
        }
      ],
      "stateMutability": "view",
      "type": "function",
      "constant": true
    },
    {
      "inputs": [],
      "name": "getNumOfCandidates",
      "outputs": [
        {
          "internalType": "uint256",
          "name": "",
          "type": "uint256"
        }
      ],
      "stateMutability": "view",
      "type": "function",
      "constant": true
    },
    {
      "inputs": [],
      "name": "getNumOfVoters",
      "outputs": [
        {
          "internalType": "uint256",
          "name": "",
          "type": "uint256"
        }
      ],
      "stateMutability": "view",
      "type": "function",
      "constant": true
    },
    {
      "inputs": [
        {
          "internalType": "uint256",
          "name": "_candidateID",
          "type": "uint256"
        }
      ],
      "name": "results",
      "outputs": [
        {
          "internalType": "uint256",
          "name": "",
          "type": "uint256"
        }
      ],
      "stateMutability": "view",
      "type": "function",
      "constant": true
    }
  ],
  "bytecode": "0x608060405234801561001057600080fd5b50336000806101000a81548173ffffffffffffffffffffffffffffffffffffffff021916908373ffffffffffffffffffffffffffffffffffffffff160217905550610d28806100606000396000f3fe608060405234801561001057600080fd5b50600436106100935760003560e01c806365fc783c1161006657806365fc783c146101205780636ece7d881461013e5780638da5cb5b1461015a578063e299d46314610178578063e8685ba1146101a857610093565b80631b0c27da146100985780631d1673bc146100c857806326541b56146100d257806335b8e820146100ee575b600080fd5b6100b260048036038101906100ad919061086c565b6101c6565b6040516100bf91906108a8565b60405180910390f35b6100d0610242565b005b6100ec60048036038101906100e79190610a09565b610368565b005b6101086004803603810190610103919061086c565b61046e565b60405161011793929190610b09565b60405180910390f35b610128610624565b60405161013591906108a8565b60405180910390f35b61015860048036038101906101539190610b4e565b61062e565b005b61016261072d565b60405161016f9190610bcf565b60405180910390f35b610192600480360381019061018d919061086c565b610751565b60405161019f91906108a8565b60405180910390f35b6101b0610775565b6040516101bd91906108a8565b60405180910390f35b6000806000905060005b600254811015610238578360056000600384815481106101f3576101f2610bea565b5b9060005260206000200154815260200190815260200160002060000154141561022557818061022190610c48565b9250505b808061023090610c48565b9150506101d0565b5080915050919050565b60008054906101000a900473ffffffffffffffffffffffffffffffffffffffff1673ffffffffffffffffffffffffffffffffffffffff163373ffffffffffffffffffffffffffffffffffffffff161461029a57600080fd5b60005b60015481116103655760405180606001604052806040518060200160405280600081525081526020016040518060200160405280600081525081526020016000151581525060046000838152602001908152602001600020600082015181600001908051906020019061031192919061077f565b50602082015181600101908051906020019061032e92919061077f565b5060408201518160020160006101000a81548160ff021916908315150217905550905050808061035d90610c48565b91505061029d565b50565b60008054906101000a900473ffffffffffffffffffffffffffffffffffffffff1673ffffffffffffffffffffffffffffffffffffffff163373ffffffffffffffffffffffffffffffffffffffff16146103c057600080fd5b6000600160008154809291906103d590610c48565b91905055905060405180606001604052808481526020018381526020016001151581525060046000838152602001908152602001600020600082015181600001908051906020019061042892919061077f565b50602082015181600101908051906020019061044592919061077f565b5060408201518160020160006101000a81548160ff021916908315150217905550905050505050565b6000606080600115156004600086815260200190815260200160002060020160009054906101000a900460ff16151514156105f3578360046000868152602001908152602001600020600001600460008781526020019081526020016000206001018180546104dc90610cc0565b80601f016020809104026020016040519081016040528092919081815260200182805461050890610cc0565b80156105555780601f1061052a57610100808354040283529160200191610555565b820191906000526020600020905b81548152906001019060200180831161053857829003601f168201915b5050505050915080805461056890610cc0565b80601f016020809104026020016040519081016040528092919081815260200182805461059490610cc0565b80156105e15780601f106105b6576101008083540402835291602001916105e1565b820191906000526020600020905b8154815290600101906020018083116105c457829003601f168201915b5050505050905092509250925061061d565b61019460405180602001604052806000815250604051806020016040528060008152509250925092505b9193909250565b6000600254905090565b600115156004600084815260200190815260200160002060020160009054906101000a900460ff161515141561072957600015156005600083815260200190815260200160002060010160009054906101000a900460ff161515141561072857600260008154809291906106a190610c48565b91905055506003819080600181540180825580915050600190039060005260206000200160009091909190915055604051806040016040528083815260200160011515815250600560008381526020019081526020016000206000820151816000015560208201518160010160006101000a81548160ff0219169083151502179055509050505b5b5050565b60008054906101000a900473ffffffffffffffffffffffffffffffffffffffff1681565b6003818154811061076157600080fd5b906000526020600020016000915090505481565b6000600154905090565b82805461078b90610cc0565b90600052602060002090601f0160209004810192826107ad57600085556107f4565b82601f106107c657805160ff19168380011785556107f4565b828001600101855582156107f4579182015b828111156107f35782518255916020019190600101906107d8565b5b5090506108019190610805565b5090565b5b8082111561081e576000816000905550600101610806565b5090565b6000604051905090565b600080fd5b600080fd5b6000819050919050565b61084981610836565b811461085457600080fd5b50565b60008135905061086681610840565b92915050565b6000602082840312156108825761088161082c565b5b600061089084828501610857565b91505092915050565b6108a281610836565b82525050565b60006020820190506108bd6000830184610899565b92915050565b600080fd5b600080fd5b6000601f19601f8301169050919050565b7f4e487b7100000000000000000000000000000000000000000000000000000000600052604160045260246000fd5b610916826108cd565b810181811067ffffffffffffffff82111715610935576109346108de565b5b80604052505050565b6000610948610822565b9050610954828261090d565b919050565b600067ffffffffffffffff821115610974576109736108de565b5b61097d826108cd565b9050602081019050919050565b82818337600083830152505050565b60006109ac6109a784610959565b61093e565b9050828152602081018484840111156109c8576109c76108c8565b5b6109d384828561098a565b509392505050565b600082601f8301126109f0576109ef6108c3565b5b8135610a00848260208601610999565b91505092915050565b60008060408385031215610a2057610a1f61082c565b5b600083013567ffffffffffffffff811115610a3e57610a3d610831565b5b610a4a858286016109db565b925050602083013567ffffffffffffffff811115610a6b57610a6a610831565b5b610a77858286016109db565b9150509250929050565b600081519050919050565b600082825260208201905092915050565b60005b83811015610abb578082015181840152602081019050610aa0565b83811115610aca576000848401525b50505050565b6000610adb82610a81565b610ae58185610a8c565b9350610af5818560208601610a9d565b610afe816108cd565b840191505092915050565b6000606082019050610b1e6000830186610899565b8181036020830152610b308185610ad0565b90508181036040830152610b448184610ad0565b9050949350505050565b60008060408385031215610b6557610b6461082c565b5b6000610b7385828601610857565b9250506020610b8485828601610857565b9150509250929050565b600073ffffffffffffffffffffffffffffffffffffffff82169050919050565b6000610bb982610b8e565b9050919050565b610bc981610bae565b82525050565b6000602082019050610be46000830184610bc0565b92915050565b7f4e487b7100000000000000000000000000000000000000000000000000000000600052603260045260246000fd5b7f4e487b7100000000000000000000000000000000000000000000000000000000600052601160045260246000fd5b6000610c5382610836565b91507fffffffffffffffffffffffffffffffffffffffffffffffffffffffffffffffff821415610c8657610c85610c19565b5b600182019050919050565b7f4e487b7100000000000000000000000000000000000000000000000000000000600052602260045260246000fd5b60006002820490506001821680610cd857607f821691505b60208210811415610cec57610ceb610c91565b5b5091905056fea264697066735822122036ed807454f9cffaa0d528fe1a7cd2545b5b0dfb48605419c6dc8d5547c054f264736f6c63430008090033",
  "immutableReferences": {},
  "source": "// SPDX-License-Identifier: GPL-3.0\r\n\r\npragma solidity ^0.8.0;\r\n\r\ncontract Voting {\r\n    address public owner;\r\n\r\n    constructor() {\r\n        owner = msg.sender;\r\n    }\r\n\r\n    modifier onlyOwner() {\r\n        require(msg.sender == owner);\r\n        _;\r\n    }\r\n\r\n    struct Voter {\r\n        uint candidateIDVote;\r\n        bool voted;\r\n    }\r\n\r\n    struct Candidate {\r\n        string name;\r\n        string dept;\r\n        bool doesExist;\r\n    }\r\n\r\n    uint numCandidates;\r\n    uint numVoters;\r\n    uint[] public aadhaarList;\r\n\r\n    mapping(uint => Candidate) candidates;\r\n    mapping(uint => Voter) voters;\r\n\r\n    // Add Candidates\r\n    function addCandidate(\r\n        string memory _name,\r\n        string memory _dept\r\n    ) public onlyOwner {\r\n        uint candidateID = numCandidates++;\r\n        candidates[candidateID] = Candidate(_name, _dept, true);\r\n    }\r\n\r\n    // Remove Candidate\r\n    function removeCandidate() public onlyOwner {\r\n        for (uint i = 0; i <= numCandidates; i++) {\r\n            candidates[i] = Candidate(\"\", \"\", false);\r\n        }\r\n    }\r\n\r\n    // Voter for Candidates\r\n    function doVote(uint _candidateID, uint _aadhaarID) public {\r\n        if (candidates[_candidateID].doesExist == true) {\r\n            if (voters[_aadhaarID].voted == false) {\r\n                numVoters++;\r\n                aadhaarList.push(_aadhaarID);\r\n                voters[_aadhaarID] = Voter(_candidateID, true);\r\n            }\r\n        }\r\n    }\r\n\r\n    // Get Candidates\r\n    function getCandidate(\r\n        uint _candidateID\r\n    ) public view returns (uint, string memory, string memory) {\r\n        if (candidates[_candidateID].doesExist == true) {\r\n            return (\r\n                _candidateID,\r\n                candidates[_candidateID].name,\r\n                candidates[_candidateID].dept\r\n            );\r\n        } else {\r\n            return (404, \"\", \"\");\r\n        }\r\n    }\r\n\r\n    // Get Number Of Candidates\r\n    function getNumOfCandidates() public view returns (uint) {\r\n        return numCandidates;\r\n    }\r\n\r\n    // Get Number of Voters\r\n    function getNumOfVoters() public view returns (uint) {\r\n        return numVoters;\r\n    }\r\n\r\n    // Results\r\n    function results(uint _candidateID) public view returns (uint) {\r\n        uint numOfVotes = 0;\r\n        for (uint i = 0; i < numVoters; i++) {\r\n            if (voters[aadhaarList[i]].candidateIDVote == _candidateID) {\r\n                numOfVotes++;\r\n            }\r\n        }\r\n        return numOfVotes;\r\n    }\r\n}\r\n",
  "sourcePath": "D:\\FINAL YEAR PROJECT\\E-Voting-using-Blockchain\\contracts\\Voting.sol",
  "compiler": {
    "name": "solc",
    "version": "0.8.9+commit.e5eed63a.Emscripten.clang"
  },
  "schemaVersion": "3.4.13",
  "updatedAt": "2023-04-27T16:24:53.556Z",
  "networkType": "ethereum",
  "devdoc": {
    "kind": "dev",
    "methods": {},
    "version": 1
  },
  "userdoc": {
    "kind": "user",
    "methods": {},
    "version": 1
  }
}